{
    "_format": "hh-sol-artifact-1",
    "contractName": "Splitva",
    "sourceName": "contracts/Splitva.sol",
    "abi": [
        {
            "inputs": [],
            "name": "ReentrancyGuardReentrantCall",
            "type": "error"
        },
        {
            "anonymous": false,
            "inputs": [
                {
                    "indexed": true,
                    "internalType": "uint256",
                    "name": "billId",
                    "type": "uint256"
                }
            ],
            "name": "BillCompleted",
            "type": "event"
        },
        {
            "anonymous": false,
            "inputs": [
                {
                    "indexed": true,
                    "internalType": "uint256",
                    "name": "billId",
                    "type": "uint256"
                },
                {
                    "indexed": true,
                    "internalType": "address",
                    "name": "organizer",
                    "type": "address"
                },
                {
                    "indexed": false,
                    "internalType": "string",
                    "name": "title",
                    "type": "string"
                },
                {
                    "indexed": false,
                    "internalType": "uint256",
                    "name": "totalAmount",
                    "type": "uint256"
                },
                {
                    "indexed": false,
                    "internalType": "address",
                    "name": "stablecoin",
                    "type": "address"
                },
                {
                    "indexed": false,
                    "internalType": "uint256",
                    "name": "participantCount",
                    "type": "uint256"
                }
            ],
            "name": "BillCreated",
            "type": "event"
        },
        {
            "anonymous": false,
            "inputs": [
                {
                    "indexed": true,
                    "internalType": "uint256",
                    "name": "billId",
                    "type": "uint256"
                },
                {
                    "indexed": true,
                    "internalType": "address",
                    "name": "organizer",
                    "type": "address"
                },
                {
                    "indexed": false,
                    "internalType": "uint256",
                    "name": "amount",
                    "type": "uint256"
                }
            ],
            "name": "BillWithdrawn",
            "type": "event"
        },
        {
            "anonymous": false,
            "inputs": [
                {
                    "indexed": true,
                    "internalType": "uint256",
                    "name": "billId",
                    "type": "uint256"
                },
                {
                    "indexed": true,
                    "internalType": "address",
                    "name": "payer",
                    "type": "address"
                },
                {
                    "indexed": false,
                    "internalType": "uint256",
                    "name": "amount",
                    "type": "uint256"
                },
                {
                    "indexed": false,
                    "internalType": "uint256",
                    "name": "totalCollected",
                    "type": "uint256"
                }
            ],
            "name": "PaymentMade",
            "type": "event"
        },
        {
            "anonymous": false,
            "inputs": [
                {
                    "indexed": true,
                    "internalType": "uint256",
                    "name": "billId",
                    "type": "uint256"
                },
                {
                    "indexed": true,
                    "internalType": "address",
                    "name": "participant",
                    "type": "address"
                },
                {
                    "indexed": false,
                    "internalType": "uint256",
                    "name": "newAmount",
                    "type": "uint256"
                }
            ],
            "name": "ShareUpdated",
            "type": "event"
        },
        {
            "inputs": [
                {
                    "internalType": "uint256",
                    "name": "",
                    "type": "uint256"
                },
                {
                    "internalType": "uint256",
                    "name": "",
                    "type": "uint256"
                }
            ],
            "name": "billParticipantAddresses",
            "outputs": [
                {
                    "internalType": "address",
                    "name": "",
                    "type": "address"
                }
            ],
            "stateMutability": "view",
            "type": "function"
        },
        {
            "inputs": [
                {
                    "internalType": "uint256",
                    "name": "",
                    "type": "uint256"
                },
                {
                    "internalType": "address",
                    "name": "",
                    "type": "address"
                }
            ],
            "name": "billParticipants",
            "outputs": [
                {
                    "internalType": "address payable",
                    "name": "wallet",
                    "type": "address"
                },
                {
                    "internalType": "uint256",
                    "name": "amountOwed",
                    "type": "uint256"
                },
                {
                    "internalType": "uint256",
                    "name": "amountPaid",
                    "type": "uint256"
                },
                {
                    "internalType": "bool",
                    "name": "hasPaid",
                    "type": "bool"
                },
                {
                    "internalType": "string",
                    "name": "name",
                    "type": "string"
                }
            ],
            "stateMutability": "view",
            "type": "function"
        },
        {
            "inputs": [
                {
                    "internalType": "uint256",
                    "name": "",
                    "type": "uint256"
                }
            ],
            "name": "bills",
            "outputs": [
                {
                    "internalType": "uint256",
                    "name": "id",
                    "type": "uint256"
                },
                {
                    "internalType": "address payable",
                    "name": "organizer",
                    "type": "address"
                },
                {
                    "internalType": "string",
                    "name": "title",
                    "type": "string"
                },
                {
                    "internalType": "uint256",
                    "name": "totalAmount",
                    "type": "uint256"
                },
                {
                    "internalType": "uint256",
                    "name": "totalCollected",
                    "type": "uint256"
                },
                {
                    "internalType": "address",
                    "name": "stablecoin",
                    "type": "address"
                },
                {
                    "internalType": "uint256",
                    "name": "participantCount",
                    "type": "uint256"
                },
                {
                    "internalType": "bool",
                    "name": "isCompleted",
                    "type": "bool"
                },
                {
                    "internalType": "bool",
                    "name": "isWithdrawn",
                    "type": "bool"
                },
                {
                    "internalType": "uint256",
                    "name": "createdAt",
                    "type": "uint256"
                }
            ],
            "stateMutability": "view",
            "type": "function"
        },
        {
            "inputs": [
                {
                    "internalType": "string",
                    "name": "_title",
                    "type": "string"
                },
                {
                    "internalType": "uint256",
                    "name": "_totalAmount",
                    "type": "uint256"
                },
                {
                    "internalType": "address",
                    "name": "_stablecoin",
                    "type": "address"
                },
                {
                    "components": [
                        {
                            "internalType": "address",
                            "name": "wallet",
                            "type": "address"
                        },
                        {
                            "internalType": "uint256",
                            "name": "share",
                            "type": "uint256"
                        },
                        {
                            "internalType": "string",
                            "name": "name",
                            "type": "string"
                        }
                    ],
                    "internalType": "struct Splitva.ParticipantData[]",
                    "name": "_participants",
                    "type": "tuple[]"
                }
            ],
            "name": "createBill",
            "outputs": [
                {
                    "internalType": "uint256",
                    "name": "",
                    "type": "uint256"
                }
            ],
            "stateMutability": "nonpayable",
            "type": "function"
        },
        {
            "inputs": [
                {
                    "internalType": "uint256",
                    "name": "_billId",
                    "type": "uint256"
                }
            ],
            "name": "getBill",
            "outputs": [
                {
                    "components": [
                        {
                            "internalType": "uint256",
                            "name": "id",
                            "type": "uint256"
                        },
                        {
                            "internalType": "address payable",
                            "name": "organizer",
                            "type": "address"
                        },
                        {
                            "internalType": "string",
                            "name": "title",
                            "type": "string"
                        },
                        {
                            "internalType": "uint256",
                            "name": "totalAmount",
                            "type": "uint256"
                        },
                        {
                            "internalType": "uint256",
                            "name": "totalCollected",
                            "type": "uint256"
                        },
                        {
                            "internalType": "address",
                            "name": "stablecoin",
                            "type": "address"
                        },
                        {
                            "internalType": "uint256",
                            "name": "participantCount",
                            "type": "uint256"
                        },
                        {
                            "internalType": "bool",
                            "name": "isCompleted",
                            "type": "bool"
                        },
                        {
                            "internalType": "bool",
                            "name": "isWithdrawn",
                            "type": "bool"
                        },
                        {
                            "internalType": "uint256",
                            "name": "createdAt",
                            "type": "uint256"
                        }
                    ],
                    "internalType": "struct Splitva.Bill",
                    "name": "",
                    "type": "tuple"
                }
            ],
            "stateMutability": "view",
            "type": "function"
        },
        {
            "inputs": [
                {
                    "internalType": "uint256",
                    "name": "_billId",
                    "type": "uint256"
                }
            ],
            "name": "getBillParticipants",
            "outputs": [
                {
                    "internalType": "address[]",
                    "name": "",
                    "type": "address[]"
                }
            ],
            "stateMutability": "view",
            "type": "function"
        },
        {
            "inputs": [
                {
                    "internalType": "uint256",
                    "name": "_billId",
                    "type": "uint256"
                }
            ],
            "name": "getBillStatus",
            "outputs": [
                {
                    "internalType": "address[]",
                    "name": "participants",
                    "type": "address[]"
                },
                {
                    "internalType": "uint256[]",
                    "name": "amountsOwed",
                    "type": "uint256[]"
                },
                {
                    "internalType": "uint256[]",
                    "name": "amountsPaid",
                    "type": "uint256[]"
                },
                {
                    "internalType": "bool[]",
                    "name": "paymentStatus",
                    "type": "bool[]"
                },
                {
                    "internalType": "string[]",
                    "name": "names",
                    "type": "string[]"
                }
            ],
            "stateMutability": "view",
            "type": "function"
        },
        {
            "inputs": [
                {
                    "internalType": "uint256",
                    "name": "_billId",
                    "type": "uint256"
                },
                {
                    "internalType": "address",
                    "name": "_participant",
                    "type": "address"
                }
            ],
            "name": "getParticipant",
            "outputs": [
                {
                    "components": [
                        {
                            "internalType": "address payable",
                            "name": "wallet",
                            "type": "address"
                        },
                        {
                            "internalType": "uint256",
                            "name": "amountOwed",
                            "type": "uint256"
                        },
                        {
                            "internalType": "uint256",
                            "name": "amountPaid",
                            "type": "uint256"
                        },
                        {
                            "internalType": "bool",
                            "name": "hasPaid",
                            "type": "bool"
                        },
                        {
                            "internalType": "string",
                            "name": "name",
                            "type": "string"
                        }
                    ],
                    "internalType": "struct Splitva.Participant",
                    "name": "",
                    "type": "tuple"
                }
            ],
            "stateMutability": "view",
            "type": "function"
        },
        {
            "inputs": [],
            "name": "getTotalBills",
            "outputs": [
                {
                    "internalType": "uint256",
                    "name": "",
                    "type": "uint256"
                }
            ],
            "stateMutability": "view",
            "type": "function"
        },
        {
            "inputs": [
                {
                    "internalType": "address",
                    "name": "_user",
                    "type": "address"
                }
            ],
            "name": "getUserBills",
            "outputs": [
                {
                    "internalType": "uint256[]",
                    "name": "",
                    "type": "uint256[]"
                }
            ],
            "stateMutability": "view",
            "type": "function"
        },
        {
            "inputs": [
                {
                    "internalType": "uint256",
                    "name": "_billId",
                    "type": "uint256"
                },
                {
                    "internalType": "uint256",
                    "name": "_amount",
                    "type": "uint256"
                }
            ],
            "name": "payShare",
            "outputs": [],
            "stateMutability": "nonpayable",
            "type": "function"
        },
        {
            "inputs": [
                {
                    "internalType": "uint256",
                    "name": "_billId",
                    "type": "uint256"
                },
                {
                    "internalType": "address",
                    "name": "_participant",
                    "type": "address"
                },
                {
                    "internalType": "uint256",
                    "name": "_newAmount",
                    "type": "uint256"
                }
            ],
            "name": "updateShare",
            "outputs": [],
            "stateMutability": "nonpayable",
            "type": "function"
        },
        {
            "inputs": [
                {
                    "internalType": "address",
                    "name": "",
                    "type": "address"
                },
                {
                    "internalType": "uint256",
                    "name": "",
                    "type": "uint256"
                }
            ],
            "name": "userBills",
            "outputs": [
                {
                    "internalType": "uint256",
                    "name": "",
                    "type": "uint256"
                }
            ],
            "stateMutability": "view",
            "type": "function"
        },
        {
            "inputs": [
                {
                    "internalType": "uint256",
                    "name": "_billId",
                    "type": "uint256"
                }
            ],
            "name": "withdrawFunds",
            "outputs": [],
            "stateMutability": "nonpayable",
            "type": "function"
        }
    ],
    "bytecode": "0x6080604052348015600f57600080fd5b506001600055612560806100246000396000f3fe608060405234801561001057600080fd5b50600436106100ea5760003560e01c80636bc92b091161008c578063a87a98db11610066578063a87a98db14610210578063ad0da28414610223578063b1cd06e614610247578063e65ef7f51461026757600080fd5b80636bc92b09146101b2578063781bd74d146101c55780639122c3a9146101f057600080fd5b806328bdcde8116100c857806328bdcde81461014457806335f3ad7a1461016d5780633c6fa7651461018d578063682ab7431461019f57600080fd5b8063155dd5ee146100ef5780632330de2914610104578063286fda3b14610117575b600080fd5b6101026100fd366004611bcd565b610287565b005b610102610112366004611be6565b610547565b61012a610125366004611bcd565b610822565b60405161013b959493929190611d21565b60405180910390f35b610157610152366004611bcd565b610c20565b60405161013b9a99989796959493929190611db6565b61018061017b366004611e44565b610d14565b60405161013b9190611e70565b6001545b60405190815260200161013b565b6101916101ad366004611ec5565b610e77565b6101916101c0366004611fcc565b610ea8565b6101d86101d3366004611be6565b61141a565b6040516001600160a01b03909116815260200161013b565b6102036101fe366004611bcd565b611452565b60405161013b9190612135565b61010261021e36600461214f565b6114ef565b610236610231366004611e44565b611760565b60405161013b959493929190612185565b61025a610255366004611bcd565b611832565b60405161013b91906121c5565b61027a61027536600461227e565b6119f8565b60405161013b9190612299565b8060008111801561029a57506001548111155b6102bf5760405162461bcd60e51b81526004016102b6906122ac565b60405180910390fd5b60008281526002602052604090206001015482906001600160a01b031633146102fa5760405162461bcd60e51b81526004016102b6906122d9565b610302611a64565b600083815260026020526040902060048101546103585760405162461bcd60e51b81526020600482015260146024820152734e6f2066756e647320746f20776974686472617760601b60448201526064016102b6565b6007810154610100900460ff16156103b25760405162461bcd60e51b815260206004820152601760248201527f46756e647320616c72656164792077697468647261776e00000000000000000060448201526064016102b6565b600781015460ff166104175760405162461bcd60e51b815260206004820152602860248201527f42696c6c206d75737420626520636f6d706c65746564206265666f72652077696044820152671d1a191c985dd85b60c21b60648201526084016102b6565b60048181015460078301805461ff0019166101001790556005830154600184015460405163a9059cbb60e01b81526001600160a01b0391821694810194909452602484018390529192911690819063a9059cbb906044016020604051808303816000875af115801561048d573d6000803e3d6000fd5b505050506040513d601f19601f820116820180604052508101906104b1919061231f565b6104ef5760405162461bcd60e51b815260206004820152600f60248201526e151c985b9cd9995c8819985a5b1959608a1b60448201526064016102b6565b60018301546040518381526001600160a01b039091169087907fb0082c309a67e6efb0d5bf168b7d8b27340d0c912f1dede8ad7865e0be5cdba99060200160405180910390a35050506105426001600055565b505050565b8160008111801561055a57506001548111155b6105765760405162461bcd60e51b81526004016102b6906122ac565b600083815260026020526040902060070154839060ff16156105d65760405162461bcd60e51b8152602060048201526019602482015278109a5b1b081a5cc8185b1c9958591e4818dbdb5c1b195d1959603a1b60448201526064016102b6565b6105de611a64565b60008481526002602090815260408083206003835281842033855290925290912080546001600160a01b03166106565760405162461bcd60e51b815260206004820152601e60248201527f4e6f742061207061727469636970616e7420696e20746869732062696c6c000060448201526064016102b6565b600085116106a65760405162461bcd60e51b815260206004820152601d60248201527f416d6f756e74206d7573742062652067726561746572207468616e203000000060448201526064016102b6565b60058201546040516323b872dd60e01b8152336004820152306024820152604481018790526001600160a01b039091169081906323b872dd906064016020604051808303816000875af1158015610701573d6000803e3d6000fd5b505050506040513d601f19601f82011682018060405250810190610725919061231f565b6107635760405162461bcd60e51b815260206004820152600f60248201526e151c985b9cd9995c8819985a5b1959608a1b60448201526064016102b6565b858260020160008282546107779190612357565b9091555050600182015460028301541061079b5760038201805460ff191660011790555b858360040160008282546107af9190612357565b90915550506004830154604080518881526020810192909252339189917fc65404633dd8ca3eaa91445ad9c825c60c158e04c83dcf2fc9067e8d13035f24910160405180910390a3826003015483600401541061080f5761080f87611a8e565b50505061081c6001600055565b50505050565b60608060608060608560008111801561083d57506001548111155b6108595760405162461bcd60e51b81526004016102b6906122ac565b6000878152600460209081526040808320805482518185028101850190935280835291929091908301828280156108b957602002820191906000526020600020905b81546001600160a01b0316815260019091019060200180831161089b575b5050835193945083925050506001600160401b038111156108dc576108dc611eef565b604051908082528060200260200182016040528015610905578160200160208202803683370190505b509750806001600160401b0381111561092057610920611eef565b604051908082528060200260200182016040528015610949578160200160208202803683370190505b509650806001600160401b0381111561096457610964611eef565b60405190808252806020026020018201604052801561098d578160200160208202803683370190505b509550806001600160401b038111156109a8576109a8611eef565b6040519080825280602002602001820160405280156109d1578160200160208202803683370190505b509450806001600160401b038111156109ec576109ec611eef565b604051908082528060200260200182016040528015610a1f57816020015b6060815260200190600190039081610a0a5790505b50935060005b81811015610c13576000838281518110610a4157610a41612370565b60209081029190910181015160008d8152600380845260408083206001600160a01b038086168552908652818420825160a081018452815490921682526001810154968201969096526002860154918101919091529084015460ff16151560608201526004840180549395509193909290916080840191610ac190612386565b80601f0160208091040260200160405190810160405280929190818152602001828054610aed90612386565b8015610b3a5780601f10610b0f57610100808354040283529160200191610b3a565b820191906000526020600020905b815481529060010190602001808311610b1d57829003601f168201915b5050505050815250509050818b8481518110610b5857610b58612370565b60200260200101906001600160a01b031690816001600160a01b03168152505080602001518a8481518110610b8f57610b8f612370565b6020026020010181815250508060400151898481518110610bb257610bb2612370565b6020026020010181815250508060600151888481518110610bd557610bd5612370565b6020026020010190151590811515815250508060800151878481518110610bfe57610bfe612370565b60209081029190910101525050600101610a25565b5050505091939590929450565b600260208190526000918252604090912080546001820154928201805491936001600160a01b03169291610c5390612386565b80601f0160208091040260200160405190810160405280929190818152602001828054610c7f90612386565b8015610ccc5780601f10610ca157610100808354040283529160200191610ccc565b820191906000526020600020905b815481529060010190602001808311610caf57829003601f168201915b50505060038401546004850154600586015460068701546007880154600890980154969793969295506001600160a01b0390911693509160ff8082169261010090920416908a565b610d516040518060a0016040528060006001600160a01b031681526020016000815260200160008152602001600015158152602001606081525090565b82600081118015610d6457506001548111155b610d805760405162461bcd60e51b81526004016102b6906122ac565b60008481526003602081815260408084206001600160a01b03808916865290835293819020815160a081018352815490951685526001810154928501929092526002820154908401529081015460ff1615156060830152600481018054608084019190610dec90612386565b80601f0160208091040260200160405190810160405280929190818152602001828054610e1890612386565b8015610e655780601f10610e3a57610100808354040283529160200191610e65565b820191906000526020600020905b815481529060010190602001808311610e4857829003601f168201915b50505050508152505091505092915050565b60056020528160005260406000208181548110610e9357600080fd5b90600052602060002001600091509150505481565b6000808411610f055760405162461bcd60e51b815260206004820152602360248201527f546f74616c20616d6f756e74206d75737420626520677265617465722074686160448201526206e20360ec1b60648201526084016102b6565b6000825111610f615760405162461bcd60e51b815260206004820152602260248201527f4d7573742068617665206174206c65617374206f6e65207061727469636970616044820152611b9d60f21b60648201526084016102b6565b6001600160a01b038316610fb75760405162461bcd60e51b815260206004820152601a60248201527f496e76616c696420737461626c65636f696e206164647265737300000000000060448201526064016102b6565b6000805b83518110156110f3576000848281518110610fd857610fd8612370565b6020026020010151905060008160200151116110365760405162461bcd60e51b815260206004820152601c60248201527f5368617265206d7573742062652067726561746572207468616e20300000000060448201526064016102b6565b80516001600160a01b031661108d5760405162461bcd60e51b815260206004820152601b60248201527f496e76616c6964207061727469636970616e742061646472657373000000000060448201526064016102b6565b6000816040015151116110d95760405162461bcd60e51b81526020600482015260146024820152734e616d652063616e6e6f7420626520656d70747960601b60448201526064016102b6565b60208101516110e89084612357565b925050600101610fbb565b508481146111435760405162461bcd60e51b815260206004820152601f60248201527f536861726573206d7573742073756d20746f20746f74616c20616d6f756e740060448201526064016102b6565b60018054906000611153836123ba565b90915550506001805460408051610140810182528281523360208083019182528284018c8152606084018c90526000608085018190526001600160a01b038c811660a08701528b5160c087015260e0860182905261010086018290524261012087015287825260029384905295902084518155925196830180546001600160a01b031916979095169690961790935593519293909290918201906111f79082612421565b50606082015160038201556080820151600482015560a08201516005820180546001600160a01b039092166001600160a01b031990921691909117905560c0820151600682015560e08201516007820180546101008086015115150261ff00199315159390931661ffff19909116179190911790556101209091015160089091015560005b84518110156113ab57600085828151811061129957611299612370565b6020908102919091018101516040805160a08101825282516001600160a01b0390811682528385015182860190815260008385018181526060850182815286880151608087019081528c84526003808b528885208a5188168652909a5296909220855181546001600160a01b0319169516949094178455915160018401559051600283015551948101805460ff1916951515959095179094559051919350919060048201906113489082612421565b505050600083815260046020908152604080832084518154600180820184559286528486200180546001600160a01b0319166001600160a01b0392831617905594519094168352600582528220805480850182559083529120018390550161127c565b50336000818152600560209081526040808320805460018101825590845291909220018390558551905183917f01fa0f13c89aa73786d1c79c0419a9633964040bb780da7fc5f891219e92203b91611408918c918c918c916124df565b60405180910390a39695505050505050565b6004602052816000526040600020818154811061143657600080fd5b6000918252602090912001546001600160a01b03169150829050565b60608160008111801561146757506001548111155b6114835760405162461bcd60e51b81526004016102b6906122ac565b600083815260046020908152604091829020805483518184028101840190945280845290918301828280156114e157602002820191906000526020600020905b81546001600160a01b031681526001909101906020018083116114c3575b505050505091505b50919050565b8260008111801561150257506001548111155b61151e5760405162461bcd60e51b81526004016102b6906122ac565b60008481526002602052604090206001015484906001600160a01b031633146115595760405162461bcd60e51b81526004016102b6906122d9565b600085815260026020526040902060070154859060ff16156115b95760405162461bcd60e51b8152602060048201526019602482015278109a5b1b081a5cc8185b1c9958591e4818dbdb5c1b195d1959603a1b60448201526064016102b6565b60008681526003602090815260408083206001600160a01b03808a1685529252909120805490911661162d5760405162461bcd60e51b815260206004820152601e60248201527f4e6f742061207061727469636970616e7420696e20746869732062696c6c000060448201526064016102b6565b600381015460ff161561168c5760405162461bcd60e51b815260206004820152602160248201527f43616e6e6f7420757064617465207368617265206166746572207061796d656e6044820152601d60fa1b60648201526084016102b6565b600085116116dc5760405162461bcd60e51b815260206004820152601d60248201527f416d6f756e74206d7573742062652067726561746572207468616e203000000060448201526064016102b6565b60018101805490869055600088815260026020526040902060038101548790611706908490612517565b6117109190612357565b60038201556040518781526001600160a01b038916908a907f7578ab1f08ebbeda9e457e49e8f77b03268b8cf2861f5bd898d94541ee33f74f9060200160405180910390a3505050505050505050565b60036020818152600093845260408085209091529183529120805460018201546002830154938301546004840180546001600160a01b03909416959294929360ff90921692916117af90612386565b80601f01602080910402602001604051908101604052809291908181526020018280546117db90612386565b80156118285780601f106117fd57610100808354040283529160200191611828565b820191906000526020600020905b81548152906001019060200180831161180b57829003601f168201915b5050505050905085565b61189e6040518061014001604052806000815260200160006001600160a01b0316815260200160608152602001600081526020016000815260200160006001600160a01b0316815260200160008152602001600015158152602001600015158152602001600081525090565b816000811180156118b157506001548111155b6118cd5760405162461bcd60e51b81526004016102b6906122ac565b6000838152600260208181526040928390208351610140810185528154815260018201546001600160a01b0316928101929092529182018054919384019161191490612386565b80601f016020809104026020016040519081016040528092919081815260200182805461194090612386565b801561198d5780601f106119625761010080835404028352916020019161198d565b820191906000526020600020905b81548152906001019060200180831161197057829003601f168201915b5050509183525050600382015460208201526004820154604082015260058201546001600160a01b0316606082015260068201546080820152600782015460ff808216151560a084015261010090910416151560c082015260089091015460e0909101529392505050565b6001600160a01b038116600090815260056020908152604091829020805483518184028101840190945280845260609392830182828015611a5857602002820191906000526020600020905b815481526020019060010190808311611a44575b50505050509050919050565b600260005403611a8757604051633ee5aeb560e01b815260040160405180910390fd5b6002600055565b6000818152600260209081526040808320600483528184208054835181860281018601909452808452919460019490939290830182828015611af957602002820191906000526020600020905b81546001600160a01b03168152600190910190602001808311611adb575b5050505050905060005b8151811015611b7257600360008681526020019081526020016000206000838381518110611b3357611b33612370565b6020908102919091018101516001600160a01b031682528101919091526040016000206003015460ff16611b6a5760009250611b72565b600101611b03565b50818015611b8857508260030154836004015410155b1561081c5760078301805460ff1916600117905560405184907ff0c9fb34f4a4597a2fb735a6c8391143dd8b76ebcf01256c6691612286e5581890600090a250505050565b600060208284031215611bdf57600080fd5b5035919050565b60008060408385031215611bf957600080fd5b50508035926020909101359150565b600081518084526020840193506020830160005b82811015611c435781516001600160a01b0316865260209586019590910190600101611c1c565b5093949350505050565b600081518084526020840193506020830160005b82811015611c43578151865260209586019590910190600101611c61565b6000815180845260005b81811015611ca557602081850181015186830182015201611c89565b506000602082860101526020601f19601f83011685010191505092915050565b600082825180855260208501945060208160051b8301016020850160005b83811015611d1557601f19858403018852611cff838351611c7f565b6020988901989093509190910190600101611ce3565b50909695505050505050565b60a081526000611d3460a0830188611c08565b8281036020840152611d468188611c4d565b90508281036040840152611d5a8187611c4d565b83810360608501528551808252602080880193509091019060005b81811015611d955783511515835260209384019390920191600101611d75565b50508381036080850152611da98186611cc5565b9998505050505050505050565b8a81526001600160a01b038a16602082015261014060408201819052600090611de19083018b611c7f565b60608301999099525060808101969096526001600160a01b039490941660a086015260c0850192909252151560e08401521515610100830152610120909101529392505050565b80356001600160a01b0381168114611e3f57600080fd5b919050565b60008060408385031215611e5757600080fd5b82359150611e6760208401611e28565b90509250929050565b6020815260018060a01b03825116602082015260208201516040820152604082015160608201526060820151151560808201526000608083015160a080840152611ebd60c0840182611c7f565b949350505050565b60008060408385031215611ed857600080fd5b611ee183611e28565b946020939093013593505050565b634e487b7160e01b600052604160045260246000fd5b604051606081016001600160401b0381118282101715611f2757611f27611eef565b60405290565b604051601f8201601f191681016001600160401b0381118282101715611f5557611f55611eef565b604052919050565b600082601f830112611f6e57600080fd5b81356001600160401b03811115611f8757611f87611eef565b611f9a601f8201601f1916602001611f2d565b818152846020838601011115611faf57600080fd5b816020850160208301376000918101602001919091529392505050565b60008060008060808587031215611fe257600080fd5b84356001600160401b03811115611ff857600080fd5b61200487828801611f5d565b9450506020850135925061201a60408601611e28565b915060608501356001600160401b0381111561203557600080fd5b8501601f8101871361204657600080fd5b80356001600160401b0381111561205f5761205f611eef565b8060051b61206f60208201611f2d565b9182526020818401810192908101908a84111561208b57600080fd5b6020850192505b838310156121265782356001600160401b038111156120b057600080fd5b85016060818d03601f190112156120c657600080fd5b6120ce611f05565b6120da60208301611e28565b81526040820135602082015260608201356001600160401b038111156120ff57600080fd5b61210e8e602083860101611f5d565b60408301525083525060209283019290910190612092565b979a9699509497505050505050565b6020815260006121486020830184611c08565b9392505050565b60008060006060848603121561216457600080fd5b8335925061217460208501611e28565b929592945050506040919091013590565b60018060a01b0386168152846020820152836040820152821515606082015260a0608082015260006121ba60a0830184611c7f565b979650505050505050565b6020815281516020820152600060208301516121ec60408401826001600160a01b03169052565b5060408301516101406060840152612208610160840182611c7f565b905060608401516080840152608084015160a084015260a084015161223860c08501826001600160a01b03169052565b5060c084015160e084015260e084015161225761010085018215159052565b50610100840151801515610120850152506101208401516101408401528091505092915050565b60006020828403121561229057600080fd5b61214882611e28565b6020815260006121486020830184611c4d565b602080825260139082015272109a5b1b08191bd95cc81b9bdd08195e1a5cdd606a1b604082015260600190565b60208082526026908201527f4f6e6c79206f7267616e697a65722063616e20706572666f726d20746869732060408201526530b1ba34b7b760d11b606082015260800190565b60006020828403121561233157600080fd5b8151801515811461214857600080fd5b634e487b7160e01b600052601160045260246000fd5b8082018082111561236a5761236a612341565b92915050565b634e487b7160e01b600052603260045260246000fd5b600181811c9082168061239a57607f821691505b6020821081036114e957634e487b7160e01b600052602260045260246000fd5b6000600182016123cc576123cc612341565b5060010190565b601f82111561054257806000526020600020601f840160051c810160208510156123fa5750805b601f840160051c820191505b8181101561241a5760008155600101612406565b5050505050565b81516001600160401b0381111561243a5761243a611eef565b61244e816124488454612386565b846123d3565b6020601f821160018114612482576000831561246a5750848201515b600019600385901b1c1916600184901b17845561241a565b600084815260208120601f198516915b828110156124b25787850151825560209485019460019092019101612492565b50848210156124d05786840151600019600387901b60f8161c191681555b50505050600190811b01905550565b6080815260006124f26080830187611c7f565b6020830195909552506001600160a01b03929092166040830152606090910152919050565b8181038181111561236a5761236a61234156fea264697066735822122098ac13f23fb71a9411ed126e8485b1df47a98160e53be7324ef2074e1302050e64736f6c634300081c0033",
    "linkReferences": {},
    "deployedLinkReferences": {}
}