{
    "_format": "hh-sol-artifact-1",
    "contractName": "SplitPay",
    "sourceName": "contracts/SplitPay.sol",
    "abi": [
        {
            "inputs": [],
            "name": "ReentrancyGuardReentrantCall",
            "type": "error"
        },
        {
            "anonymous": false,
            "inputs": [
                {
                    "indexed": true,
                    "internalType": "uint256",
                    "name": "billId",
                    "type": "uint256"
                }
            ],
            "name": "BillCompleted",
            "type": "event"
        },
        {
            "anonymous": false,
            "inputs": [
                {
                    "indexed": true,
                    "internalType": "uint256",
                    "name": "billId",
                    "type": "uint256"
                },
                {
                    "indexed": true,
                    "internalType": "address",
                    "name": "organizer",
                    "type": "address"
                },
                {
                    "indexed": false,
                    "internalType": "string",
                    "name": "title",
                    "type": "string"
                },
                {
                    "indexed": false,
                    "internalType": "uint256",
                    "name": "totalAmount",
                    "type": "uint256"
                },
                {
                    "indexed": false,
                    "internalType": "address",
                    "name": "stablecoin",
                    "type": "address"
                },
                {
                    "indexed": false,
                    "internalType": "uint256",
                    "name": "participantCount",
                    "type": "uint256"
                }
            ],
            "name": "BillCreated",
            "type": "event"
        },
        {
            "anonymous": false,
            "inputs": [
                {
                    "indexed": true,
                    "internalType": "uint256",
                    "name": "billId",
                    "type": "uint256"
                },
                {
                    "indexed": true,
                    "internalType": "address",
                    "name": "organizer",
                    "type": "address"
                },
                {
                    "indexed": false,
                    "internalType": "uint256",
                    "name": "amount",
                    "type": "uint256"
                }
            ],
            "name": "BillWithdrawn",
            "type": "event"
        },
        {
            "anonymous": false,
            "inputs": [
                {
                    "indexed": true,
                    "internalType": "uint256",
                    "name": "billId",
                    "type": "uint256"
                },
                {
                    "indexed": true,
                    "internalType": "address",
                    "name": "payer",
                    "type": "address"
                },
                {
                    "indexed": false,
                    "internalType": "uint256",
                    "name": "amount",
                    "type": "uint256"
                },
                {
                    "indexed": false,
                    "internalType": "uint256",
                    "name": "totalCollected",
                    "type": "uint256"
                }
            ],
            "name": "PaymentMade",
            "type": "event"
        },
        {
            "anonymous": false,
            "inputs": [
                {
                    "indexed": true,
                    "internalType": "uint256",
                    "name": "billId",
                    "type": "uint256"
                },
                {
                    "indexed": true,
                    "internalType": "address",
                    "name": "participant",
                    "type": "address"
                },
                {
                    "indexed": false,
                    "internalType": "uint256",
                    "name": "newAmount",
                    "type": "uint256"
                }
            ],
            "name": "ShareUpdated",
            "type": "event"
        },
        {
            "inputs": [
                {
                    "internalType": "uint256",
                    "name": "",
                    "type": "uint256"
                },
                {
                    "internalType": "uint256",
                    "name": "",
                    "type": "uint256"
                }
            ],
            "name": "billParticipantAddresses",
            "outputs": [
                {
                    "internalType": "address",
                    "name": "",
                    "type": "address"
                }
            ],
            "stateMutability": "view",
            "type": "function"
        },
        {
            "inputs": [
                {
                    "internalType": "uint256",
                    "name": "",
                    "type": "uint256"
                },
                {
                    "internalType": "address",
                    "name": "",
                    "type": "address"
                }
            ],
            "name": "billParticipants",
            "outputs": [
                {
                    "internalType": "address payable",
                    "name": "wallet",
                    "type": "address"
                },
                {
                    "internalType": "uint256",
                    "name": "amountOwed",
                    "type": "uint256"
                },
                {
                    "internalType": "uint256",
                    "name": "amountPaid",
                    "type": "uint256"
                },
                {
                    "internalType": "bool",
                    "name": "hasPaid",
                    "type": "bool"
                },
                {
                    "internalType": "string",
                    "name": "name",
                    "type": "string"
                },
                {
                    "internalType": "string",
                    "name": "phoneNumber",
                    "type": "string"
                }
            ],
            "stateMutability": "view",
            "type": "function"
        },
        {
            "inputs": [
                {
                    "internalType": "uint256",
                    "name": "",
                    "type": "uint256"
                }
            ],
            "name": "bills",
            "outputs": [
                {
                    "internalType": "uint256",
                    "name": "id",
                    "type": "uint256"
                },
                {
                    "internalType": "address payable",
                    "name": "organizer",
                    "type": "address"
                },
                {
                    "internalType": "string",
                    "name": "title",
                    "type": "string"
                },
                {
                    "internalType": "uint256",
                    "name": "totalAmount",
                    "type": "uint256"
                },
                {
                    "internalType": "uint256",
                    "name": "totalCollected",
                    "type": "uint256"
                },
                {
                    "internalType": "address",
                    "name": "stablecoin",
                    "type": "address"
                },
                {
                    "internalType": "uint256",
                    "name": "participantCount",
                    "type": "uint256"
                },
                {
                    "internalType": "bool",
                    "name": "isCompleted",
                    "type": "bool"
                },
                {
                    "internalType": "bool",
                    "name": "isWithdrawn",
                    "type": "bool"
                },
                {
                    "internalType": "uint256",
                    "name": "createdAt",
                    "type": "uint256"
                }
            ],
            "stateMutability": "view",
            "type": "function"
        },
        {
            "inputs": [
                {
                    "internalType": "string",
                    "name": "_title",
                    "type": "string"
                },
                {
                    "internalType": "uint256",
                    "name": "_totalAmount",
                    "type": "uint256"
                },
                {
                    "internalType": "address",
                    "name": "_stablecoin",
                    "type": "address"
                },
                {
                    "components": [
                        {
                            "internalType": "address",
                            "name": "wallet",
                            "type": "address"
                        },
                        {
                            "internalType": "uint256",
                            "name": "share",
                            "type": "uint256"
                        },
                        {
                            "internalType": "string",
                            "name": "name",
                            "type": "string"
                        },
                        {
                            "internalType": "string",
                            "name": "phoneNumber",
                            "type": "string"
                        }
                    ],
                    "internalType": "struct SplitPay.ParticipantData[]",
                    "name": "_participants",
                    "type": "tuple[]"
                }
            ],
            "name": "createBill",
            "outputs": [
                {
                    "internalType": "uint256",
                    "name": "",
                    "type": "uint256"
                }
            ],
            "stateMutability": "nonpayable",
            "type": "function"
        },
        {
            "inputs": [
                {
                    "internalType": "uint256",
                    "name": "_billId",
                    "type": "uint256"
                }
            ],
            "name": "getBill",
            "outputs": [
                {
                    "components": [
                        {
                            "internalType": "uint256",
                            "name": "id",
                            "type": "uint256"
                        },
                        {
                            "internalType": "address payable",
                            "name": "organizer",
                            "type": "address"
                        },
                        {
                            "internalType": "string",
                            "name": "title",
                            "type": "string"
                        },
                        {
                            "internalType": "uint256",
                            "name": "totalAmount",
                            "type": "uint256"
                        },
                        {
                            "internalType": "uint256",
                            "name": "totalCollected",
                            "type": "uint256"
                        },
                        {
                            "internalType": "address",
                            "name": "stablecoin",
                            "type": "address"
                        },
                        {
                            "internalType": "uint256",
                            "name": "participantCount",
                            "type": "uint256"
                        },
                        {
                            "internalType": "bool",
                            "name": "isCompleted",
                            "type": "bool"
                        },
                        {
                            "internalType": "bool",
                            "name": "isWithdrawn",
                            "type": "bool"
                        },
                        {
                            "internalType": "uint256",
                            "name": "createdAt",
                            "type": "uint256"
                        }
                    ],
                    "internalType": "struct SplitPay.Bill",
                    "name": "",
                    "type": "tuple"
                }
            ],
            "stateMutability": "view",
            "type": "function"
        },
        {
            "inputs": [
                {
                    "internalType": "uint256",
                    "name": "_billId",
                    "type": "uint256"
                }
            ],
            "name": "getBillParticipants",
            "outputs": [
                {
                    "internalType": "address[]",
                    "name": "",
                    "type": "address[]"
                }
            ],
            "stateMutability": "view",
            "type": "function"
        },
        {
            "inputs": [
                {
                    "internalType": "uint256",
                    "name": "_billId",
                    "type": "uint256"
                }
            ],
            "name": "getBillStatus",
            "outputs": [
                {
                    "internalType": "address[]",
                    "name": "participants",
                    "type": "address[]"
                },
                {
                    "internalType": "uint256[]",
                    "name": "amountsOwed",
                    "type": "uint256[]"
                },
                {
                    "internalType": "uint256[]",
                    "name": "amountsPaid",
                    "type": "uint256[]"
                },
                {
                    "internalType": "bool[]",
                    "name": "paymentStatus",
                    "type": "bool[]"
                },
                {
                    "internalType": "string[]",
                    "name": "names",
                    "type": "string[]"
                },
                {
                    "internalType": "string[]",
                    "name": "phoneNumbers",
                    "type": "string[]"
                }
            ],
            "stateMutability": "view",
            "type": "function"
        },
        {
            "inputs": [
                {
                    "internalType": "uint256",
                    "name": "_billId",
                    "type": "uint256"
                },
                {
                    "internalType": "address",
                    "name": "_participant",
                    "type": "address"
                }
            ],
            "name": "getParticipant",
            "outputs": [
                {
                    "components": [
                        {
                            "internalType": "address payable",
                            "name": "wallet",
                            "type": "address"
                        },
                        {
                            "internalType": "uint256",
                            "name": "amountOwed",
                            "type": "uint256"
                        },
                        {
                            "internalType": "uint256",
                            "name": "amountPaid",
                            "type": "uint256"
                        },
                        {
                            "internalType": "bool",
                            "name": "hasPaid",
                            "type": "bool"
                        },
                        {
                            "internalType": "string",
                            "name": "name",
                            "type": "string"
                        },
                        {
                            "internalType": "string",
                            "name": "phoneNumber",
                            "type": "string"
                        }
                    ],
                    "internalType": "struct SplitPay.Participant",
                    "name": "",
                    "type": "tuple"
                }
            ],
            "stateMutability": "view",
            "type": "function"
        },
        {
            "inputs": [],
            "name": "getTotalBills",
            "outputs": [
                {
                    "internalType": "uint256",
                    "name": "",
                    "type": "uint256"
                }
            ],
            "stateMutability": "view",
            "type": "function"
        },
        {
            "inputs": [
                {
                    "internalType": "address",
                    "name": "_user",
                    "type": "address"
                }
            ],
            "name": "getUserBills",
            "outputs": [
                {
                    "internalType": "uint256[]",
                    "name": "",
                    "type": "uint256[]"
                }
            ],
            "stateMutability": "view",
            "type": "function"
        },
        {
            "inputs": [
                {
                    "internalType": "uint256",
                    "name": "_billId",
                    "type": "uint256"
                },
                {
                    "internalType": "uint256",
                    "name": "_amount",
                    "type": "uint256"
                }
            ],
            "name": "payShare",
            "outputs": [],
            "stateMutability": "nonpayable",
            "type": "function"
        },
        {
            "inputs": [
                {
                    "internalType": "uint256",
                    "name": "_billId",
                    "type": "uint256"
                },
                {
                    "internalType": "address",
                    "name": "_participant",
                    "type": "address"
                },
                {
                    "internalType": "uint256",
                    "name": "_newAmount",
                    "type": "uint256"
                }
            ],
            "name": "updateShare",
            "outputs": [],
            "stateMutability": "nonpayable",
            "type": "function"
        },
        {
            "inputs": [
                {
                    "internalType": "address",
                    "name": "",
                    "type": "address"
                },
                {
                    "internalType": "uint256",
                    "name": "",
                    "type": "uint256"
                }
            ],
            "name": "userBills",
            "outputs": [
                {
                    "internalType": "uint256",
                    "name": "",
                    "type": "uint256"
                }
            ],
            "stateMutability": "view",
            "type": "function"
        },
        {
            "inputs": [
                {
                    "internalType": "uint256",
                    "name": "_billId",
                    "type": "uint256"
                }
            ],
            "name": "withdrawFunds",
            "outputs": [],
            "stateMutability": "nonpayable",
            "type": "function"
        }
    ],
    "bytecode": "0x6080604052348015600f57600080fd5b50600160005561286a806100246000396000f3fe608060405234801561001057600080fd5b50600436106100ea5760003560e01c8063781bd74d1161008c578063aace2a1e11610066578063aace2a1e14610211578063ad0da28414610224578063b1cd06e614610249578063e65ef7f51461026957600080fd5b8063781bd74d146101b35780639122c3a9146101de578063a87a98db146101fe57600080fd5b806328bdcde8116100c857806328bdcde81461014557806335f3ad7a1461016e5780633c6fa7651461018e578063682ab743146101a057600080fd5b8063155dd5ee146100ef5780632330de2914610104578063286fda3b14610117575b600080fd5b6101026100fd366004611e6e565b610289565b005b610102610112366004611e87565b610549565b61012a610125366004611e6e565b610824565b60405161013c96959493929190611fc2565b60405180910390f35b610158610153366004611e6e565b610d25565b60405161013c9a9998979695949392919061206c565b61018161017c3660046120fa565b610e19565b60405161013c9190612126565b6001545b60405190815260200161013c565b6101926101ae36600461219a565b611015565b6101c66101c1366004611e87565b611046565b6040516001600160a01b03909116815260200161013c565b6101f16101ec366004611e6e565b61107e565b60405161013c91906121c4565b61010261020c3660046121de565b61111b565b61019261021f3660046122f1565b61138c565b6102376102323660046120fa565b611973565b60405161013c96959493929190612488565b61025c610257366004611e6e565b611ad3565b60405161013c91906124cf565b61027c610277366004612588565b611c99565b60405161013c91906125a3565b8060008111801561029c57506001548111155b6102c15760405162461bcd60e51b81526004016102b8906125b6565b60405180910390fd5b60008281526002602052604090206001015482906001600160a01b031633146102fc5760405162461bcd60e51b81526004016102b8906125e3565b610304611d05565b6000838152600260205260409020600481015461035a5760405162461bcd60e51b81526020600482015260146024820152734e6f2066756e647320746f20776974686472617760601b60448201526064016102b8565b6007810154610100900460ff16156103b45760405162461bcd60e51b815260206004820152601760248201527f46756e647320616c72656164792077697468647261776e00000000000000000060448201526064016102b8565b600781015460ff166104195760405162461bcd60e51b815260206004820152602860248201527f42696c6c206d75737420626520636f6d706c65746564206265666f72652077696044820152671d1a191c985dd85b60c21b60648201526084016102b8565b60048181015460078301805461ff0019166101001790556005830154600184015460405163a9059cbb60e01b81526001600160a01b0391821694810194909452602484018390529192911690819063a9059cbb906044016020604051808303816000875af115801561048f573d6000803e3d6000fd5b505050506040513d601f19601f820116820180604052508101906104b39190612629565b6104f15760405162461bcd60e51b815260206004820152600f60248201526e151c985b9cd9995c8819985a5b1959608a1b60448201526064016102b8565b60018301546040518381526001600160a01b039091169087907fb0082c309a67e6efb0d5bf168b7d8b27340d0c912f1dede8ad7865e0be5cdba99060200160405180910390a35050506105446001600055565b505050565b8160008111801561055c57506001548111155b6105785760405162461bcd60e51b81526004016102b8906125b6565b600083815260026020526040902060070154839060ff16156105d85760405162461bcd60e51b8152602060048201526019602482015278109a5b1b081a5cc8185b1c9958591e4818dbdb5c1b195d1959603a1b60448201526064016102b8565b6105e0611d05565b60008481526002602090815260408083206003835281842033855290925290912080546001600160a01b03166106585760405162461bcd60e51b815260206004820152601e60248201527f4e6f742061207061727469636970616e7420696e20746869732062696c6c000060448201526064016102b8565b600085116106a85760405162461bcd60e51b815260206004820152601d60248201527f416d6f756e74206d7573742062652067726561746572207468616e203000000060448201526064016102b8565b60058201546040516323b872dd60e01b8152336004820152306024820152604481018790526001600160a01b039091169081906323b872dd906064016020604051808303816000875af1158015610703573d6000803e3d6000fd5b505050506040513d601f19601f820116820180604052508101906107279190612629565b6107655760405162461bcd60e51b815260206004820152600f60248201526e151c985b9cd9995c8819985a5b1959608a1b60448201526064016102b8565b858260020160008282546107799190612661565b9091555050600182015460028301541061079d5760038201805460ff191660011790555b858360040160008282546107b19190612661565b90915550506004830154604080518881526020810192909252339189917fc65404633dd8ca3eaa91445ad9c825c60c158e04c83dcf2fc9067e8d13035f24910160405180910390a382600301548360040154106108115761081187611d2f565b50505061081e6001600055565b50505050565b6060806060806060808660008111801561084057506001548111155b61085c5760405162461bcd60e51b81526004016102b8906125b6565b6000888152600460209081526040808320805482518185028101850190935280835291929091908301828280156108bc57602002820191906000526020600020905b81546001600160a01b0316815260019091019060200180831161089e575b5050835193945083925050506001600160401b038111156108df576108df612214565b604051908082528060200260200182016040528015610908578160200160208202803683370190505b509850806001600160401b0381111561092357610923612214565b60405190808252806020026020018201604052801561094c578160200160208202803683370190505b509750806001600160401b0381111561096757610967612214565b604051908082528060200260200182016040528015610990578160200160208202803683370190505b509650806001600160401b038111156109ab576109ab612214565b6040519080825280602002602001820160405280156109d4578160200160208202803683370190505b509550806001600160401b038111156109ef576109ef612214565b604051908082528060200260200182016040528015610a2257816020015b6060815260200190600190039081610a0d5790505b509450806001600160401b03811115610a3d57610a3d612214565b604051908082528060200260200182016040528015610a7057816020015b6060815260200190600190039081610a5b5790505b50935060005b81811015610d18576000838281518110610a9257610a9261267a565b60209081029190910181015160008e8152600380845260408083206001600160a01b038086168552908652818420825160c081018452815490921682526001810154968201969096526002860154918101919091529084015460ff16151560608201526004840180549395509193909290916080840191610b1290612690565b80601f0160208091040260200160405190810160405280929190818152602001828054610b3e90612690565b8015610b8b5780601f10610b6057610100808354040283529160200191610b8b565b820191906000526020600020905b815481529060010190602001808311610b6e57829003601f168201915b50505050508152602001600582018054610ba490612690565b80601f0160208091040260200160405190810160405280929190818152602001828054610bd090612690565b8015610c1d5780601f10610bf257610100808354040283529160200191610c1d565b820191906000526020600020905b815481529060010190602001808311610c0057829003601f168201915b5050505050815250509050818c8481518110610c3b57610c3b61267a565b60200260200101906001600160a01b031690816001600160a01b03168152505080602001518b8481518110610c7257610c7261267a565b60200260200101818152505080604001518a8481518110610c9557610c9561267a565b6020026020010181815250508060600151898481518110610cb857610cb861267a565b6020026020010190151590811515815250508060800151888481518110610ce157610ce161267a565b60200260200101819052508060a00151878481518110610d0357610d0361267a565b60209081029190910101525050600101610a76565b5050505091939550919395565b600260208190526000918252604090912080546001820154928201805491936001600160a01b03169291610d5890612690565b80601f0160208091040260200160405190810160405280929190818152602001828054610d8490612690565b8015610dd15780601f10610da657610100808354040283529160200191610dd1565b820191906000526020600020905b815481529060010190602001808311610db457829003601f168201915b50505060038401546004850154600586015460068701546007880154600890980154969793969295506001600160a01b0390911693509160ff8082169261010090920416908a565b610e5d6040518060c0016040528060006001600160a01b03168152602001600081526020016000815260200160001515815260200160608152602001606081525090565b82600081118015610e7057506001548111155b610e8c5760405162461bcd60e51b81526004016102b8906125b6565b60008481526003602081815260408084206001600160a01b03808916865290835293819020815160c081018352815490951685526001810154928501929092526002820154908401529081015460ff1615156060830152600481018054608084019190610ef890612690565b80601f0160208091040260200160405190810160405280929190818152602001828054610f2490612690565b8015610f715780601f10610f4657610100808354040283529160200191610f71565b820191906000526020600020905b815481529060010190602001808311610f5457829003601f168201915b50505050508152602001600582018054610f8a90612690565b80601f0160208091040260200160405190810160405280929190818152602001828054610fb690612690565b80156110035780601f10610fd857610100808354040283529160200191611003565b820191906000526020600020905b815481529060010190602001808311610fe657829003601f168201915b50505050508152505091505092915050565b6005602052816000526040600020818154811061103157600080fd5b90600052602060002001600091509150505481565b6004602052816000526040600020818154811061106257600080fd5b6000918252602090912001546001600160a01b03169150829050565b60608160008111801561109357506001548111155b6110af5760405162461bcd60e51b81526004016102b8906125b6565b6000838152600460209081526040918290208054835181840281018401909452808452909183018282801561110d57602002820191906000526020600020905b81546001600160a01b031681526001909101906020018083116110ef575b505050505091505b50919050565b8260008111801561112e57506001548111155b61114a5760405162461bcd60e51b81526004016102b8906125b6565b60008481526002602052604090206001015484906001600160a01b031633146111855760405162461bcd60e51b81526004016102b8906125e3565b600085815260026020526040902060070154859060ff16156111e55760405162461bcd60e51b8152602060048201526019602482015278109a5b1b081a5cc8185b1c9958591e4818dbdb5c1b195d1959603a1b60448201526064016102b8565b60008681526003602090815260408083206001600160a01b03808a168552925290912080549091166112595760405162461bcd60e51b815260206004820152601e60248201527f4e6f742061207061727469636970616e7420696e20746869732062696c6c000060448201526064016102b8565b600381015460ff16156112b85760405162461bcd60e51b815260206004820152602160248201527f43616e6e6f7420757064617465207368617265206166746572207061796d656e6044820152601d60fa1b60648201526084016102b8565b600085116113085760405162461bcd60e51b815260206004820152601d60248201527f416d6f756e74206d7573742062652067726561746572207468616e203000000060448201526064016102b8565b600181018054908690556000888152600260205260409020600381015487906113329084906126c4565b61133c9190612661565b60038201556040518781526001600160a01b038916908a907f7578ab1f08ebbeda9e457e49e8f77b03268b8cf2861f5bd898d94541ee33f74f9060200160405180910390a3505050505050505050565b60008084116113e95760405162461bcd60e51b815260206004820152602360248201527f546f74616c20616d6f756e74206d75737420626520677265617465722074686160448201526206e20360ec1b60648201526084016102b8565b60008251116114455760405162461bcd60e51b815260206004820152602260248201527f4d7573742068617665206174206c65617374206f6e65207061727469636970616044820152611b9d60f21b60648201526084016102b8565b6001600160a01b03831661149b5760405162461bcd60e51b815260206004820152601a60248201527f496e76616c696420737461626c65636f696e206164647265737300000000000060448201526064016102b8565b6000805b835181101561162c5760008482815181106114bc576114bc61267a565b60200260200101519050600081602001511161151a5760405162461bcd60e51b815260206004820152601c60248201527f5368617265206d7573742062652067726561746572207468616e20300000000060448201526064016102b8565b80516001600160a01b03166115715760405162461bcd60e51b815260206004820152601b60248201527f496e76616c6964207061727469636970616e742061646472657373000000000060448201526064016102b8565b6000816040015151116115bd5760405162461bcd60e51b81526020600482015260146024820152734e616d652063616e6e6f7420626520656d70747960601b60448201526064016102b8565b6000816060015151116116125760405162461bcd60e51b815260206004820152601c60248201527f50686f6e65206e756d6265722063616e6e6f7420626520656d7074790000000060448201526064016102b8565b60208101516116219084612661565b92505060010161149f565b5084811461167c5760405162461bcd60e51b815260206004820152601f60248201527f536861726573206d7573742073756d20746f20746f74616c20616d6f756e740060448201526064016102b8565b6001805490600061168c836126d7565b90915550506001805460408051610140810182528281523360208083019182528284018c8152606084018c90526000608085018190526001600160a01b038c811660a08701528b5160c087015260e0860182905261010086018290524261012087015287825260029384905295902084518155925196830180546001600160a01b03191697909516969096179093559351929390929091820190611730908261273e565b50606082015160038201556080820151600482015560a08201516005820180546001600160a01b039092166001600160a01b031990921691909117905560c0820151600682015560e08201516007820180546101008086015115150261ff00199315159390931661ffff19909116179190911790556101209091015160089091015560005b84518110156119045760008582815181106117d2576117d261267a565b6020908102919091018101516040805160c08101825282516001600160a01b039081168252838501518286019081526000838501818152606080860183815287890151608088019081529189015160a08801528c84526003808b528885208a5188168652909a5296909220855181546001600160a01b031916951694909417845591516001840155905160028301559251948101805460ff19169515159590951790945590519193509190600482019061188c908261273e565b5060a082015160058201906118a1908261273e565b505050600083815260046020908152604080832084518154600180820184559286528486200180546001600160a01b0319166001600160a01b039283161790559451909416835260058252822080548085018255908352912001839055016117b5565b50336000818152600560209081526040808320805460018101825590845291909220018390558551905183917f01fa0f13c89aa73786d1c79c0419a9633964040bb780da7fc5f891219e92203b91611961918c918c918c916127fc565b60405180910390a39695505050505050565b60036020818152600093845260408085209091529183529120805460018201546002830154938301546004840180546001600160a01b03909416959294929360ff90921692916119c290612690565b80601f01602080910402602001604051908101604052809291908181526020018280546119ee90612690565b8015611a3b5780601f10611a1057610100808354040283529160200191611a3b565b820191906000526020600020905b815481529060010190602001808311611a1e57829003601f168201915b505050505090806005018054611a5090612690565b80601f0160208091040260200160405190810160405280929190818152602001828054611a7c90612690565b8015611ac95780601f10611a9e57610100808354040283529160200191611ac9565b820191906000526020600020905b815481529060010190602001808311611aac57829003601f168201915b5050505050905086565b611b3f6040518061014001604052806000815260200160006001600160a01b0316815260200160608152602001600081526020016000815260200160006001600160a01b0316815260200160008152602001600015158152602001600015158152602001600081525090565b81600081118015611b5257506001548111155b611b6e5760405162461bcd60e51b81526004016102b8906125b6565b6000838152600260208181526040928390208351610140810185528154815260018201546001600160a01b03169281019290925291820180549193840191611bb590612690565b80601f0160208091040260200160405190810160405280929190818152602001828054611be190612690565b8015611c2e5780601f10611c0357610100808354040283529160200191611c2e565b820191906000526020600020905b815481529060010190602001808311611c1157829003601f168201915b5050509183525050600382015460208201526004820154604082015260058201546001600160a01b0316606082015260068201546080820152600782015460ff808216151560a084015261010090910416151560c082015260089091015460e0909101529392505050565b6001600160a01b038116600090815260056020908152604091829020805483518184028101840190945280845260609392830182828015611cf957602002820191906000526020600020905b815481526020019060010190808311611ce5575b50505050509050919050565b600260005403611d2857604051633ee5aeb560e01b815260040160405180910390fd5b6002600055565b6000818152600260209081526040808320600483528184208054835181860281018601909452808452919460019490939290830182828015611d9a57602002820191906000526020600020905b81546001600160a01b03168152600190910190602001808311611d7c575b5050505050905060005b8151811015611e1357600360008681526020019081526020016000206000838381518110611dd457611dd461267a565b6020908102919091018101516001600160a01b031682528101919091526040016000206003015460ff16611e0b5760009250611e13565b600101611da4565b50818015611e2957508260030154836004015410155b1561081e5760078301805460ff1916600117905560405184907ff0c9fb34f4a4597a2fb735a6c8391143dd8b76ebcf01256c6691612286e5581890600090a250505050565b600060208284031215611e8057600080fd5b5035919050565b60008060408385031215611e9a57600080fd5b50508035926020909101359150565b600081518084526020840193506020830160005b82811015611ee45781516001600160a01b0316865260209586019590910190600101611ebd565b5093949350505050565b600081518084526020840193506020830160005b82811015611ee4578151865260209586019590910190600101611f02565b6000815180845260005b81811015611f4657602081850181015186830182015201611f2a565b506000602082860101526020601f19601f83011685010191505092915050565b600082825180855260208501945060208160051b8301016020850160005b83811015611fb657601f19858403018852611fa0838351611f20565b6020988901989093509190910190600101611f84565b50909695505050505050565b60c081526000611fd560c0830189611ea9565b8281036020840152611fe78189611eee565b90508281036040840152611ffb8188611eee565b83810360608501528651808252602080890193509091019060005b818110156120365783511515835260209384019390920191600101612016565b5050838103608085015261204a8187611f66565b91505082810360a084015261205f8185611f66565b9998505050505050505050565b8a81526001600160a01b038a166020820152610140604082018190526000906120979083018b611f20565b60608301999099525060808101969096526001600160a01b039490941660a086015260c0850192909252151560e08401521515610100830152610120909101529392505050565b80356001600160a01b03811681146120f557600080fd5b919050565b6000806040838503121561210d57600080fd5b8235915061211d602084016120de565b90509250929050565b6020815260018060a01b03825116602082015260208201516040820152604082015160608201526060820151151560808201526000608083015160c060a084015261217460e0840182611f20565b905060a0840151601f198483030160c08501526121918282611f20565b95945050505050565b600080604083850312156121ad57600080fd5b6121b6836120de565b946020939093013593505050565b6020815260006121d76020830184611ea9565b9392505050565b6000806000606084860312156121f357600080fd5b83359250612203602085016120de565b929592945050506040919091013590565b634e487b7160e01b600052604160045260246000fd5b604051608081016001600160401b038111828210171561224c5761224c612214565b60405290565b604051601f8201601f191681016001600160401b038111828210171561227a5761227a612214565b604052919050565b600082601f83011261229357600080fd5b81356001600160401b038111156122ac576122ac612214565b6122bf601f8201601f1916602001612252565b8181528460208386010111156122d457600080fd5b816020850160208301376000918101602001919091529392505050565b6000806000806080858703121561230757600080fd5b84356001600160401b0381111561231d57600080fd5b61232987828801612282565b9450506020850135925061233f604086016120de565b915060608501356001600160401b0381111561235a57600080fd5b8501601f8101871361236b57600080fd5b80356001600160401b0381111561238457612384612214565b8060051b61239460208201612252565b9182526020818401810192908101908a8411156123b057600080fd5b6020850192505b838310156124795782356001600160401b038111156123d557600080fd5b85016080818d03601f190112156123eb57600080fd5b6123f361222a565b6123ff602083016120de565b81526040820135602082015260608201356001600160401b0381111561242457600080fd5b6124338e602083860101612282565b60408301525060808201356001600160401b0381111561245257600080fd5b6124618e602083860101612282565b606083015250835250602092830192909101906123b7565b979a9699509497505050505050565b60018060a01b0387168152856020820152846040820152831515606082015260c0608082015260006124bd60c0830185611f20565b82810360a084015261205f8185611f20565b6020815281516020820152600060208301516124f660408401826001600160a01b03169052565b5060408301516101406060840152612512610160840182611f20565b905060608401516080840152608084015160a084015260a084015161254260c08501826001600160a01b03169052565b5060c084015160e084015260e084015161256161010085018215159052565b50610100840151801515610120850152506101208401516101408401528091505092915050565b60006020828403121561259a57600080fd5b6121d7826120de565b6020815260006121d76020830184611eee565b602080825260139082015272109a5b1b08191bd95cc81b9bdd08195e1a5cdd606a1b604082015260600190565b60208082526026908201527f4f6e6c79206f7267616e697a65722063616e20706572666f726d20746869732060408201526530b1ba34b7b760d11b606082015260800190565b60006020828403121561263b57600080fd5b815180151581146121d757600080fd5b634e487b7160e01b600052601160045260246000fd5b808201808211156126745761267461264b565b92915050565b634e487b7160e01b600052603260045260246000fd5b600181811c908216806126a457607f821691505b60208210810361111557634e487b7160e01b600052602260045260246000fd5b818103818111156126745761267461264b565b6000600182016126e9576126e961264b565b5060010190565b601f82111561054457806000526020600020601f840160051c810160208510156127175750805b601f840160051c820191505b818110156127375760008155600101612723565b5050505050565b81516001600160401b0381111561275757612757612214565b61276b816127658454612690565b846126f0565b6020601f82116001811461279f57600083156127875750848201515b600019600385901b1c1916600184901b178455612737565b600084815260208120601f198516915b828110156127cf57878501518255602094850194600190920191016127af565b50848210156127ed5786840151600019600387901b60f8161c191681555b50505050600190811b01905550565b60808152600061280f6080830187611f20565b6020830195909552506001600160a01b0392909216604083015260609091015291905056fea2646970667358221220f45b74a6607da0ac879c242f5844de3c429fb81b827385e881c1241e5e6cb27f64736f6c634300081c0033",
    "linkReferences": {},
    "deployedLinkReferences": {}
}